{
  "contractName": "DrugTracking",
  "abi": [
    {
      "inputs": [],
      "payable": false,
      "stateMutability": "nonpayable",
      "type": "constructor"
    },
    {
      "constant": true,
      "inputs": [
        {
          "internalType": "uint256",
          "name": "",
          "type": "uint256"
        }
      ],
      "name": "drugTrack",
      "outputs": [
        {
          "internalType": "uint256",
          "name": "serialNumber",
          "type": "uint256"
        },
        {
          "internalType": "uint256",
          "name": "ndc",
          "type": "uint256"
        },
        {
          "internalType": "string",
          "name": "name",
          "type": "string"
        },
        {
          "internalType": "string",
          "name": "manufacturerName",
          "type": "string"
        },
        {
          "internalType": "address",
          "name": "currentOwner",
          "type": "address"
        }
      ],
      "payable": false,
      "stateMutability": "view",
      "type": "function"
    },
    {
      "constant": true,
      "inputs": [
        {
          "internalType": "uint256",
          "name": "",
          "type": "uint256"
        }
      ],
      "name": "drugs",
      "outputs": [
        {
          "internalType": "uint256",
          "name": "serialNumber",
          "type": "uint256"
        },
        {
          "internalType": "uint256",
          "name": "ndc",
          "type": "uint256"
        },
        {
          "internalType": "string",
          "name": "name",
          "type": "string"
        },
        {
          "internalType": "string",
          "name": "manufacturerName",
          "type": "string"
        },
        {
          "internalType": "address",
          "name": "currentOwner",
          "type": "address"
        }
      ],
      "payable": false,
      "stateMutability": "view",
      "type": "function"
    },
    {
      "constant": true,
      "inputs": [],
      "name": "drugsCount",
      "outputs": [
        {
          "internalType": "uint256",
          "name": "",
          "type": "uint256"
        }
      ],
      "payable": false,
      "stateMutability": "view",
      "type": "function"
    },
    {
      "constant": true,
      "inputs": [
        {
          "internalType": "uint256",
          "name": "",
          "type": "uint256"
        }
      ],
      "name": "manufacturers",
      "outputs": [
        {
          "internalType": "uint256",
          "name": "id",
          "type": "uint256"
        },
        {
          "internalType": "string",
          "name": "name",
          "type": "string"
        },
        {
          "internalType": "address",
          "name": "account",
          "type": "address"
        }
      ],
      "payable": false,
      "stateMutability": "view",
      "type": "function"
    },
    {
      "constant": true,
      "inputs": [],
      "name": "manufacturersCount",
      "outputs": [
        {
          "internalType": "uint256",
          "name": "",
          "type": "uint256"
        }
      ],
      "payable": false,
      "stateMutability": "view",
      "type": "function"
    },
    {
      "constant": true,
      "inputs": [],
      "name": "owner",
      "outputs": [
        {
          "internalType": "address",
          "name": "",
          "type": "address"
        }
      ],
      "payable": false,
      "stateMutability": "view",
      "type": "function"
    },
    {
      "constant": true,
      "inputs": [
        {
          "internalType": "address",
          "name": "",
          "type": "address"
        },
        {
          "internalType": "uint256",
          "name": "",
          "type": "uint256"
        }
      ],
      "name": "ownerships",
      "outputs": [
        {
          "internalType": "uint256",
          "name": "serialNumber",
          "type": "uint256"
        },
        {
          "internalType": "uint256",
          "name": "ndc",
          "type": "uint256"
        },
        {
          "internalType": "string",
          "name": "name",
          "type": "string"
        },
        {
          "internalType": "string",
          "name": "manufacturerName",
          "type": "string"
        },
        {
          "internalType": "address",
          "name": "currentOwner",
          "type": "address"
        }
      ],
      "payable": false,
      "stateMutability": "view",
      "type": "function"
    },
    {
      "constant": false,
      "inputs": [
        {
          "internalType": "uint256",
          "name": "_id",
          "type": "uint256"
        },
        {
          "internalType": "string",
          "name": "_name",
          "type": "string"
        },
        {
          "internalType": "address",
          "name": "_account",
          "type": "address"
        }
      ],
      "name": "registerManufacturer",
      "outputs": [],
      "payable": true,
      "stateMutability": "payable",
      "type": "function"
    },
    {
      "constant": false,
      "inputs": [
        {
          "internalType": "uint256",
          "name": "_serialNumber",
          "type": "uint256"
        },
        {
          "internalType": "uint256",
          "name": "_ndc",
          "type": "uint256"
        },
        {
          "internalType": "string",
          "name": "_name",
          "type": "string"
        },
        {
          "internalType": "string",
          "name": "_manufacturerName",
          "type": "string"
        }
      ],
      "name": "registerDrug",
      "outputs": [],
      "payable": true,
      "stateMutability": "payable",
      "type": "function"
    },
    {
      "constant": false,
      "inputs": [
        {
          "internalType": "uint256",
          "name": "_serialNumber",
          "type": "uint256"
        },
        {
          "internalType": "address",
          "name": "_newOwner",
          "type": "address"
        }
      ],
      "name": "changeOwnership",
      "outputs": [],
      "payable": true,
      "stateMutability": "payable",
      "type": "function"
    }
  ],
  "bytecode": "0x60806040526000600155600060025534801561001a57600080fd5b50336000806101000a81548173ffffffffffffffffffffffffffffffffffffffff021916908373ffffffffffffffffffffffffffffffffffffffff1602179055506118dd8061006a6000396000f3fe6080604052600436106100915760003560e01c806392812e6f1161005957806392812e6f146104f0578063b0a1ec251461051b578063da21554214610546578063fca5e61e1461062b578063fdf896da1461078c57610091565b80631a12f49b1461009657806389b3887e146101fc5780638a5adb1f1461024a5780638da5cb5b146103ab57806390175af114610402575b600080fd5b6101fa600480360360808110156100ac57600080fd5b810190808035906020019092919080359060200190929190803590602001906401000000008111156100dd57600080fd5b8201836020820111156100ef57600080fd5b8035906020019184600183028401116401000000008311171561011157600080fd5b91908080601f016020809104026020016040519081016040528093929190818152602001838380828437600081840152601f19601f8201169050808301925050505050505091929192908035906020019064010000000081111561017457600080fd5b82018360208201111561018657600080fd5b803590602001918460018302840111640100000000831117156101a857600080fd5b91908080601f016020809104026020016040519081016040528093929190818152602001838380828437600081840152601f19601f82011690508083019250505050505050919291929050505061090d565b005b6102486004803603604081101561021257600080fd5b8101908080359060200190929190803573ffffffffffffffffffffffffffffffffffffffff169060200190929190505050610aa0565b005b34801561025657600080fd5b506102836004803603602081101561026d57600080fd5b8101908080359060200190929190505050610d9f565b6040518086815260200185815260200180602001806020018473ffffffffffffffffffffffffffffffffffffffff1673ffffffffffffffffffffffffffffffffffffffff168152602001838103835286818151815260200191508051906020019080838360005b838110156103055780820151818401526020810190506102ea565b50505050905090810190601f1680156103325780820380516001836020036101000a031916815260200191505b50838103825285818151815260200191508051906020019080838360005b8381101561036b578082015181840152602081019050610350565b50505050905090810190601f1680156103985780820380516001836020036101000a031916815260200191505b5097505050505050505060405180910390f35b3480156103b757600080fd5b506103c0610f32565b604051808273ffffffffffffffffffffffffffffffffffffffff1673ffffffffffffffffffffffffffffffffffffffff16815260200191505060405180910390f35b34801561040e57600080fd5b5061043b6004803603602081101561042557600080fd5b8101908080359060200190929190505050610f57565b60405180848152602001806020018373ffffffffffffffffffffffffffffffffffffffff1673ffffffffffffffffffffffffffffffffffffffff168152602001828103825284818151815260200191508051906020019080838360005b838110156104b3578082015181840152602081019050610498565b50505050905090810190601f1680156104e05780820380516001836020036101000a031916815260200191505b5094505050505060405180910390f35b3480156104fc57600080fd5b50610505611039565b6040518082815260200191505060405180910390f35b34801561052757600080fd5b5061053061103f565b6040518082815260200191505060405180910390f35b6106296004803603606081101561055c57600080fd5b81019080803590602001909291908035906020019064010000000081111561058357600080fd5b82018360208201111561059557600080fd5b803590602001918460018302840111640100000000831117156105b757600080fd5b91908080601f016020809104026020016040519081016040528093929190818152602001838380828437600081840152601f19601f820116905080830192505050505050509192919290803573ffffffffffffffffffffffffffffffffffffffff169060200190929190505050611045565b005b34801561063757600080fd5b506106646004803603602081101561064e57600080fd5b81019080803590602001909291905050506111b6565b6040518086815260200185815260200180602001806020018473ffffffffffffffffffffffffffffffffffffffff1673ffffffffffffffffffffffffffffffffffffffff168152602001838103835286818151815260200191508051906020019080838360005b838110156106e65780820151818401526020810190506106cb565b50505050905090810190601f1680156107135780820380516001836020036101000a031916815260200191505b50838103825285818151815260200191508051906020019080838360005b8381101561074c578082015181840152602081019050610731565b50505050905090810190601f1680156107795780820380516001836020036101000a031916815260200191505b5097505050505050505060405180910390f35b34801561079857600080fd5b506107e5600480360360408110156107af57600080fd5b81019080803573ffffffffffffffffffffffffffffffffffffffff1690602001909291908035906020019092919050505061133c565b6040518086815260200185815260200180602001806020018473ffffffffffffffffffffffffffffffffffffffff1673ffffffffffffffffffffffffffffffffffffffff168152602001838103835286818151815260200191508051906020019080838360005b8381101561086757808201518184015260208101905061084c565b50505050905090810190601f1680156108945780820380516001836020036101000a031916815260200191505b50838103825285818151815260200191508051906020019080838360005b838110156108cd5780820151818401526020810190506108b2565b50505050905090810190601f1680156108fa5780820380516001836020036101000a031916815260200191505b5097505050505050505060405180910390f35b60008090505b6001548111610a99576109246116f4565b6004600083815260200190815260200160002060405180606001604052908160008201548152602001600182018054600181600116156101000203166002900480601f0160208091040260200160405190810160405280929190818152602001828054600181600116156101000203166002900480156109e55780601f106109ba576101008083540402835291602001916109e5565b820191906000526020600020905b8154815290600101906020018083116109c857829003601f168201915b505050505081526020016002820160009054906101000a900473ffffffffffffffffffffffffffffffffffffffff1673ffffffffffffffffffffffffffffffffffffffff1673ffffffffffffffffffffffffffffffffffffffff1681525050905081806001019250503373ffffffffffffffffffffffffffffffffffffffff16816040015173ffffffffffffffffffffffffffffffffffffffff161415610a9357610a92868686866114cf565b5b50610913565b5050505050565b600060056000848152602001908152602001600020905060038190806001815401808255809150509060018203906000526020600020906005020160009091929091909150600082015481600001556001820154816001015560028201816002019080546001816001161561010002031660029004610b2092919061172b565b5060038201816003019080546001816001161561010002031660029004610b4892919061172b565b506004820160009054906101000a900473ffffffffffffffffffffffffffffffffffffffff168160040160006101000a81548173ffffffffffffffffffffffffffffffffffffffff021916908373ffffffffffffffffffffffffffffffffffffffff1602179055505050508060040160009054906101000a900473ffffffffffffffffffffffffffffffffffffffff1673ffffffffffffffffffffffffffffffffffffffff163373ffffffffffffffffffffffffffffffffffffffff1614610c5b576040517f08c379a00000000000000000000000000000000000000000000000000000000081526004018080602001828103825260218152602001806118886021913960400191505060405180910390fd5b818160040160006101000a81548173ffffffffffffffffffffffffffffffffffffffff021916908373ffffffffffffffffffffffffffffffffffffffff16021790555060038190806001815401808255809150509060018203906000526020600020906005020160009091929091909150600082015481600001556001820154816001015560028201816002019080546001816001161561010002031660029004610d0792919061172b565b5060038201816003019080546001816001161561010002031660029004610d2f92919061172b565b506004820160009054906101000a900473ffffffffffffffffffffffffffffffffffffffff168160040160006101000a81548173ffffffffffffffffffffffffffffffffffffffff021916908373ffffffffffffffffffffffffffffffffffffffff160217905550505050505050565b60038181548110610dac57fe5b9060005260206000209060050201600091509050806000015490806001015490806002018054600181600116156101000203166002900480601f016020809104026020016040519081016040528092919081815260200182805460018160011615610100020316600290048015610e645780601f10610e3957610100808354040283529160200191610e64565b820191906000526020600020905b815481529060010190602001808311610e4757829003601f168201915b505050505090806003018054600181600116156101000203166002900480601f016020809104026020016040519081016040528092919081815260200182805460018160011615610100020316600290048015610f025780601f10610ed757610100808354040283529160200191610f02565b820191906000526020600020905b815481529060010190602001808311610ee557829003601f168201915b5050505050908060040160009054906101000a900473ffffffffffffffffffffffffffffffffffffffff16905085565b6000809054906101000a900473ffffffffffffffffffffffffffffffffffffffff1681565b6004602052806000526040600020600091509050806000015490806001018054600181600116156101000203166002900480601f0160208091040260200160405190810160405280929190818152602001828054600181600116156101000203166002900480156110095780601f10610fde57610100808354040283529160200191611009565b820191906000526020600020905b815481529060010190602001808311610fec57829003601f168201915b5050505050908060020160009054906101000a900473ffffffffffffffffffffffffffffffffffffffff16905083565b60025481565b60015481565b6000809054906101000a900473ffffffffffffffffffffffffffffffffffffffff1673ffffffffffffffffffffffffffffffffffffffff163373ffffffffffffffffffffffffffffffffffffffff16146110ea576040517f08c379a00000000000000000000000000000000000000000000000000000000081526004018080602001828103825260308152602001806118586030913960400191505060405180910390fd5b60405180606001604052808481526020018381526020018273ffffffffffffffffffffffffffffffffffffffff16815250600460008581526020019081526020016000206000820151816000015560208201518160010190805190602001906111549291906117b2565b5060408201518160020160006101000a81548173ffffffffffffffffffffffffffffffffffffffff021916908373ffffffffffffffffffffffffffffffffffffffff160217905550905050600160008154809291906001019190505550505050565b6005602052806000526040600020600091509050806000015490806001015490806002018054600181600116156101000203166002900480601f01602080910402602001604051908101604052809291908181526020018280546001816001161561010002031660029004801561126e5780601f106112435761010080835404028352916020019161126e565b820191906000526020600020905b81548152906001019060200180831161125157829003601f168201915b505050505090806003018054600181600116156101000203166002900480601f01602080910402602001604051908101604052809291908181526020018280546001816001161561010002031660029004801561130c5780601f106112e15761010080835404028352916020019161130c565b820191906000526020600020905b8154815290600101906020018083116112ef57829003601f168201915b5050505050908060040160009054906101000a900473ffffffffffffffffffffffffffffffffffffffff16905085565b600660205281600052604060002060205280600052604060002060009150915050806000015490806001015490806002018054600181600116156101000203166002900480601f0160208091040260200160405190810160405280929190818152602001828054600181600116156101000203166002900480156114015780601f106113d657610100808354040283529160200191611401565b820191906000526020600020905b8154815290600101906020018083116113e457829003601f168201915b505050505090806003018054600181600116156101000203166002900480601f01602080910402602001604051908101604052809291908181526020018280546001816001161561010002031660029004801561149f5780601f106114745761010080835404028352916020019161149f565b820191906000526020600020905b81548152906001019060200180831161148257829003601f168201915b5050505050908060040160009054906101000a900473ffffffffffffffffffffffffffffffffffffffff16905085565b6040518060a001604052808581526020018481526020018381526020018281526020013373ffffffffffffffffffffffffffffffffffffffff16815250600560008681526020019081526020016000206000820151816000015560208201518160010155604082015181600201908051906020019061154f9291906117b2565b50606082015181600301908051906020019061156c9291906117b2565b5060808201518160040160006101000a81548173ffffffffffffffffffffffffffffffffffffffff021916908373ffffffffffffffffffffffffffffffffffffffff1602179055509050506040518060a001604052808581526020018481526020018381526020018281526020013373ffffffffffffffffffffffffffffffffffffffff16815250600660003373ffffffffffffffffffffffffffffffffffffffff1673ffffffffffffffffffffffffffffffffffffffff1681526020019081526020016000206000868152602001908152602001600020600082015181600001556020820151816001015560408201518160020190805190602001906116749291906117b2565b5060608201518160030190805190602001906116919291906117b2565b5060808201518160040160006101000a81548173ffffffffffffffffffffffffffffffffffffffff021916908373ffffffffffffffffffffffffffffffffffffffff16021790555090505060026000815480929190600101919050555050505050565b60405180606001604052806000815260200160608152602001600073ffffffffffffffffffffffffffffffffffffffff1681525090565b828054600181600116156101000203166002900490600052602060002090601f016020900481019282601f1061176457805485556117a1565b828001600101855582156117a157600052602060002091601f016020900482015b828111156117a0578254825591600101919060010190611785565b5b5090506117ae9190611832565b5090565b828054600181600116156101000203166002900490600052602060002090601f016020900481019282601f106117f357805160ff1916838001178555611821565b82800160010185558215611821579182015b82811115611820578251825591602001919060010190611805565b5b50905061182e9190611832565b5090565b61185491905b80821115611850576000816000905550600101611838565b5090565b9056fe796f7520617265206e6f7420617574686f72697a656420746f207265676973746572204d616e75666163747572657273796f75607265206e6f7420746865206f776e6572206f6620746869732064727567a265627a7a72315820d4250dab1af0b8565bd7d54f6a3e6bec0e29be4f20edfaa778664517b6868b0164736f6c63430005100032",
  "source": "pragma solidity >=0.4.20 <0.7.0;\r\ncontract DrugTracking {\r\n//core function is to track drugs between owners of the drug\r\n// allow certain manufctures to register the drug \r\n//get current owener of the drug\r\n//cherck if the drug has already been consumed , retail , warehouse \r\n//get the drug previos owners\r\n      // code \r\n\r\n      // state variables \r\n      address public owner;\r\n      uint public manufacturersCount = 0 ;\r\n      uint public drugsCount = 0;\r\n      // track drug information \r\n      Drug[] public drugTrack ;\r\n      \r\n\r\n\r\n\r\n      // struct representation of pharmaceutical drug \r\n        struct Drug {\r\n         uint serialNumber;\r\n         //national drug code\r\n         uint ndc;\r\n         string name;\r\n         string manufacturerName;\r\n         address currentOwner ;\r\n         \r\n   \r\n\r\n        } \r\n        struct Manufacturer {\r\n          uint id;\r\n          string name;\r\n          address account;\r\n\r\n\r\n\r\n\r\n        }\r\n        struct pharmacy {\r\n          uint id;\r\n          string name;\r\n         address account;\r\n\r\n\r\n        }\r\n        //all registered manufacturers \r\n        mapping(uint => Manufacturer) public manufacturers;\r\n\r\n        // all drugs in the supply chain get the last onwer \r\n        mapping(uint => Drug) public drugs ;\r\n        // Drug and current owner mapping , get the drugs in the supply chain exchaining hands\r\n\r\n        mapping(address => mapping(uint => Drug)) public ownerships ;\r\n       \r\n\r\n        \r\n        constructor() public {\r\n           owner = msg.sender; \r\n\r\n        }\r\n        function registerManufacturer(uint  _id , string memory _name , address   _account) payable public{\r\n            require(msg.sender == owner , \"you are not authorized to register Manufacturers\") ;\r\n            manufacturers[_id] = Manufacturer(_id , _name, _account ) ;\r\n            manufacturersCount ++;\r\n        }\r\n        \r\n        function createDrug(uint _serialNumber , uint _ndc , string memory _name , string memory _manufacturerName)  internal {\r\n            \r\n         drugs[_serialNumber] = Drug(_serialNumber , _ndc, _name ,_manufacturerName ,msg.sender) ;\r\n         ownerships[msg.sender][_serialNumber] = Drug(_serialNumber , _ndc, _name,_manufacturerName,msg.sender) ;\r\n         drugsCount ++ ;              \r\n\r\n\r\n\r\n        }\r\n        function registerDrug(uint _serialNumber , uint _ndc , string memory _name , string memory _manufacturerName) payable public{\r\n           \r\n          uint i = 0 ;\r\n\r\n          while ( i <= manufacturersCount) {\r\n          Manufacturer memory cherck =  manufacturers[i] ;\r\n          i ++ ;\r\n          if(cherck.account == msg.sender) {\r\n            createDrug(_serialNumber ,_ndc ,_name ,_manufacturerName) ;\r\n          }\r\n          \r\n          }\r\n          \r\n        }\r\n\r\n        // function to tranfer drugs between maunfacture and other \r\n       // get the drug change current owener\r\n       // create an array  to push in the the next owner\r\n\r\n       function changeOwnership(uint _serialNumber , address _newOwner)payable public{\r\n         Drug storage currentDrug = drugs[_serialNumber] ;\r\n         drugTrack.push(currentDrug);\r\n         require(msg.sender == currentDrug.currentOwner  , \"you`re not the owner of this drug\") ;\r\n         currentDrug.currentOwner = _newOwner ;\r\n         drugTrack.push(currentDrug);\r\n\r\n       }\r\n\r\n\r\n\r\n\r\n\r\n}",
  "sourcePath": "C:/Users/Jephias T Mundondo/OneDrive/Desktop/drugApp/contracts/DrugTracking.sol",
  "compiler": {
    "name": "solc",
    "version": "0.5.16+commit.9c3226ce.Emscripten.clang"
  },
  "schemaVersion": "3.3.3",
  "updatedAt": "2021-01-06T15:01:00.099Z",
  "networkType": "ethereum",
  "devdoc": {
    "methods": {}
  },
  "userdoc": {
    "methods": {}
  }
}