{
  "contractName": "DrugTracking",
  "abi": [
    {
      "inputs": [],
      "payable": false,
      "stateMutability": "nonpayable",
      "type": "constructor"
    },
    {
      "anonymous": false,
      "inputs": [
        {
          "indexed": false,
          "internalType": "uint256",
          "name": "_serialNumbers",
          "type": "uint256"
        },
        {
          "indexed": false,
          "internalType": "address",
          "name": "_oldOwners",
          "type": "address"
        },
        {
          "indexed": false,
          "internalType": "address",
          "name": "_newOwners",
          "type": "address"
        }
      ],
      "name": "changeOwnerships",
      "type": "event"
    },
    {
      "anonymous": false,
      "inputs": [
        {
          "indexed": false,
          "internalType": "uint256",
          "name": "_serialNumbers",
          "type": "uint256"
        },
        {
          "indexed": false,
          "internalType": "uint256",
          "name": "_ndcs",
          "type": "uint256"
        },
        {
          "indexed": false,
          "internalType": "string",
          "name": "_names",
          "type": "string"
        },
        {
          "indexed": false,
          "internalType": "string",
          "name": "_manufacturerNames",
          "type": "string"
        }
      ],
      "name": "createDrugs",
      "type": "event"
    },
    {
      "anonymous": false,
      "inputs": [
        {
          "indexed": false,
          "internalType": "string",
          "name": "_names",
          "type": "string"
        },
        {
          "indexed": false,
          "internalType": "address",
          "name": "_accounts",
          "type": "address"
        }
      ],
      "name": "registerManufacturers",
      "type": "event"
    },
    {
      "constant": true,
      "inputs": [],
      "name": "createdDrug",
      "outputs": [
        {
          "internalType": "uint256",
          "name": "serialNumber",
          "type": "uint256"
        },
        {
          "internalType": "uint256",
          "name": "ndc",
          "type": "uint256"
        },
        {
          "internalType": "string",
          "name": "name",
          "type": "string"
        },
        {
          "internalType": "string",
          "name": "manufacturerName",
          "type": "string"
        },
        {
          "internalType": "address",
          "name": "currentOwner",
          "type": "address"
        }
      ],
      "payable": false,
      "stateMutability": "view",
      "type": "function"
    },
    {
      "constant": true,
      "inputs": [],
      "name": "createdManufacturer",
      "outputs": [
        {
          "internalType": "uint256",
          "name": "id",
          "type": "uint256"
        },
        {
          "internalType": "string",
          "name": "name",
          "type": "string"
        },
        {
          "internalType": "address",
          "name": "account",
          "type": "address"
        }
      ],
      "payable": false,
      "stateMutability": "view",
      "type": "function"
    },
    {
      "constant": true,
      "inputs": [
        {
          "internalType": "uint256",
          "name": "",
          "type": "uint256"
        }
      ],
      "name": "drugTrack",
      "outputs": [
        {
          "internalType": "uint256",
          "name": "serialNumber",
          "type": "uint256"
        },
        {
          "internalType": "uint256",
          "name": "ndc",
          "type": "uint256"
        },
        {
          "internalType": "string",
          "name": "name",
          "type": "string"
        },
        {
          "internalType": "string",
          "name": "manufacturerName",
          "type": "string"
        },
        {
          "internalType": "address",
          "name": "currentOwner",
          "type": "address"
        }
      ],
      "payable": false,
      "stateMutability": "view",
      "type": "function"
    },
    {
      "constant": true,
      "inputs": [
        {
          "internalType": "uint256",
          "name": "",
          "type": "uint256"
        }
      ],
      "name": "drugs",
      "outputs": [
        {
          "internalType": "uint256",
          "name": "serialNumber",
          "type": "uint256"
        },
        {
          "internalType": "uint256",
          "name": "ndc",
          "type": "uint256"
        },
        {
          "internalType": "string",
          "name": "name",
          "type": "string"
        },
        {
          "internalType": "string",
          "name": "manufacturerName",
          "type": "string"
        },
        {
          "internalType": "address",
          "name": "currentOwner",
          "type": "address"
        }
      ],
      "payable": false,
      "stateMutability": "view",
      "type": "function"
    },
    {
      "constant": true,
      "inputs": [],
      "name": "drugsCount",
      "outputs": [
        {
          "internalType": "uint256",
          "name": "",
          "type": "uint256"
        }
      ],
      "payable": false,
      "stateMutability": "view",
      "type": "function"
    },
    {
      "constant": true,
      "inputs": [
        {
          "internalType": "uint256",
          "name": "",
          "type": "uint256"
        }
      ],
      "name": "manufacturers",
      "outputs": [
        {
          "internalType": "uint256",
          "name": "id",
          "type": "uint256"
        },
        {
          "internalType": "string",
          "name": "name",
          "type": "string"
        },
        {
          "internalType": "address",
          "name": "account",
          "type": "address"
        }
      ],
      "payable": false,
      "stateMutability": "view",
      "type": "function"
    },
    {
      "constant": true,
      "inputs": [],
      "name": "manufacturersCount",
      "outputs": [
        {
          "internalType": "uint256",
          "name": "",
          "type": "uint256"
        }
      ],
      "payable": false,
      "stateMutability": "view",
      "type": "function"
    },
    {
      "constant": true,
      "inputs": [],
      "name": "owner",
      "outputs": [
        {
          "internalType": "address",
          "name": "",
          "type": "address"
        }
      ],
      "payable": false,
      "stateMutability": "view",
      "type": "function"
    },
    {
      "constant": true,
      "inputs": [
        {
          "internalType": "address",
          "name": "",
          "type": "address"
        },
        {
          "internalType": "uint256",
          "name": "",
          "type": "uint256"
        }
      ],
      "name": "ownerships",
      "outputs": [
        {
          "internalType": "uint256",
          "name": "serialNumber",
          "type": "uint256"
        },
        {
          "internalType": "uint256",
          "name": "ndc",
          "type": "uint256"
        },
        {
          "internalType": "string",
          "name": "name",
          "type": "string"
        },
        {
          "internalType": "string",
          "name": "manufacturerName",
          "type": "string"
        },
        {
          "internalType": "address",
          "name": "currentOwner",
          "type": "address"
        }
      ],
      "payable": false,
      "stateMutability": "view",
      "type": "function"
    },
    {
      "constant": false,
      "inputs": [
        {
          "internalType": "uint256",
          "name": "_id",
          "type": "uint256"
        },
        {
          "internalType": "string",
          "name": "_name",
          "type": "string"
        },
        {
          "internalType": "address",
          "name": "_account",
          "type": "address"
        }
      ],
      "name": "registerManufacturer",
      "outputs": [],
      "payable": true,
      "stateMutability": "payable",
      "type": "function"
    },
    {
      "constant": false,
      "inputs": [
        {
          "internalType": "uint256",
          "name": "_serialNumber",
          "type": "uint256"
        },
        {
          "internalType": "uint256",
          "name": "_ndc",
          "type": "uint256"
        },
        {
          "internalType": "string",
          "name": "_name",
          "type": "string"
        },
        {
          "internalType": "string",
          "name": "_manufacturerName",
          "type": "string"
        }
      ],
      "name": "registerDrug",
      "outputs": [],
      "payable": true,
      "stateMutability": "payable",
      "type": "function"
    },
    {
      "constant": false,
      "inputs": [
        {
          "internalType": "uint256",
          "name": "_serialNumber",
          "type": "uint256"
        },
        {
          "internalType": "address",
          "name": "_newOwner",
          "type": "address"
        }
      ],
      "name": "changeOwnership",
      "outputs": [],
      "payable": true,
      "stateMutability": "payable",
      "type": "function"
    }
  ],
  "bytecode": "0x60806040526000600155600060025534801561001a57600080fd5b50336000806101000a81548173ffffffffffffffffffffffffffffffffffffffff021916908373ffffffffffffffffffffffffffffffffffffffff1602179055506121418061006a6000396000f3fe6080604052600436106100a75760003560e01c806390175af11161006457806390175af11461061f57806392812e6f1461070d578063b0a1ec2514610738578063da21554214610763578063fca5e61e14610848578063fdf896da146109a9576100a7565b80631a12f49b146100ac5780634a412bc2146102125780636860c6eb146102dc57806389b3887e146104195780638a5adb1f146104675780638da5cb5b146105c8575b600080fd5b610210600480360360808110156100c257600080fd5b810190808035906020019092919080359060200190929190803590602001906401000000008111156100f357600080fd5b82018360208201111561010557600080fd5b8035906020019184600183028401116401000000008311171561012757600080fd5b91908080601f016020809104026020016040519081016040528093929190818152602001838380828437600081840152601f19601f8201169050808301925050505050505091929192908035906020019064010000000081111561018a57600080fd5b82018360208201111561019c57600080fd5b803590602001918460018302840111640100000000831117156101be57600080fd5b91908080601f016020809104026020016040519081016040528093929190818152602001838380828437600081840152601f19601f820116905080830192505050505050509192919290505050610b2a565b005b34801561021e57600080fd5b50610227610cbd565b60405180848152602001806020018373ffffffffffffffffffffffffffffffffffffffff1673ffffffffffffffffffffffffffffffffffffffff168152602001828103825284818151815260200191508051906020019080838360005b8381101561029f578082015181840152602081019050610284565b50505050905090810190601f1680156102cc5780820380516001836020036101000a031916815260200191505b5094505050505060405180910390f35b3480156102e857600080fd5b506102f1610d8d565b6040518086815260200185815260200180602001806020018473ffffffffffffffffffffffffffffffffffffffff1673ffffffffffffffffffffffffffffffffffffffff168152602001838103835286818151815260200191508051906020019080838360005b83811015610373578082015181840152602081019050610358565b50505050905090810190601f1680156103a05780820380516001836020036101000a031916815260200191505b50838103825285818151815260200191508051906020019080838360005b838110156103d95780820151818401526020810190506103be565b50505050905090810190601f1680156104065780820380516001836020036101000a031916815260200191505b5097505050505050505060405180910390f35b6104656004803603604081101561042f57600080fd5b8101908080359060200190929190803573ffffffffffffffffffffffffffffffffffffffff169060200190929190505050610f01565b005b34801561047357600080fd5b506104a06004803603602081101561048a57600080fd5b810190808035906020019092919050505061129f565b6040518086815260200185815260200180602001806020018473ffffffffffffffffffffffffffffffffffffffff1673ffffffffffffffffffffffffffffffffffffffff168152602001838103835286818151815260200191508051906020019080838360005b83811015610522578082015181840152602081019050610507565b50505050905090810190601f16801561054f5780820380516001836020036101000a031916815260200191505b50838103825285818151815260200191508051906020019080838360005b8381101561058857808201518184015260208101905061056d565b50505050905090810190601f1680156105b55780820380516001836020036101000a031916815260200191505b5097505050505050505060405180910390f35b3480156105d457600080fd5b506105dd611432565b604051808273ffffffffffffffffffffffffffffffffffffffff1673ffffffffffffffffffffffffffffffffffffffff16815260200191505060405180910390f35b34801561062b57600080fd5b506106586004803603602081101561064257600080fd5b8101908080359060200190929190505050611457565b60405180848152602001806020018373ffffffffffffffffffffffffffffffffffffffff1673ffffffffffffffffffffffffffffffffffffffff168152602001828103825284818151815260200191508051906020019080838360005b838110156106d05780820151818401526020810190506106b5565b50505050905090810190601f1680156106fd5780820380516001836020036101000a031916815260200191505b5094505050505060405180910390f35b34801561071957600080fd5b50610722611539565b6040518082815260200191505060405180910390f35b34801561074457600080fd5b5061074d61153f565b6040518082815260200191505060405180910390f35b6108466004803603606081101561077957600080fd5b8101908080359060200190929190803590602001906401000000008111156107a057600080fd5b8201836020820111156107b257600080fd5b803590602001918460018302840111640100000000831117156107d457600080fd5b91908080601f016020809104026020016040519081016040528093929190818152602001838380828437600081840152601f19601f820116905080830192505050505050509192919290803573ffffffffffffffffffffffffffffffffffffffff169060200190929190505050611545565b005b34801561085457600080fd5b506108816004803603602081101561086b57600080fd5b810190808035906020019092919050505061182a565b6040518086815260200185815260200180602001806020018473ffffffffffffffffffffffffffffffffffffffff1673ffffffffffffffffffffffffffffffffffffffff168152602001838103835286818151815260200191508051906020019080838360005b838110156109035780820151818401526020810190506108e8565b50505050905090810190601f1680156109305780820380516001836020036101000a031916815260200191505b50838103825285818151815260200191508051906020019080838360005b8381101561096957808201518184015260208101905061094e565b50505050905090810190601f1680156109965780820380516001836020036101000a031916815260200191505b5097505050505050505060405180910390f35b3480156109b557600080fd5b50610a02600480360360408110156109cc57600080fd5b81019080803573ffffffffffffffffffffffffffffffffffffffff169060200190929190803590602001909291905050506119b0565b6040518086815260200185815260200180602001806020018473ffffffffffffffffffffffffffffffffffffffff1673ffffffffffffffffffffffffffffffffffffffff168152602001838103835286818151815260200191508051906020019080838360005b83811015610a84578082015181840152602081019050610a69565b50505050905090810190601f168015610ab15780820380516001836020036101000a031916815260200191505b50838103825285818151815260200191508051906020019080838360005b83811015610aea578082015181840152602081019050610acf565b50505050905090810190601f168015610b175780820380516001836020036101000a031916815260200191505b5097505050505050505060405180910390f35b60008090505b6001548111610cb657610b41611f58565b600c600083815260200190815260200160002060405180606001604052908160008201548152602001600182018054600181600116156101000203166002900480601f016020809104026020016040519081016040528092919081815260200182805460018160011615610100020316600290048015610c025780601f10610bd757610100808354040283529160200191610c02565b820191906000526020600020905b815481529060010190602001808311610be557829003601f168201915b505050505081526020016002820160009054906101000a900473ffffffffffffffffffffffffffffffffffffffff1673ffffffffffffffffffffffffffffffffffffffff1673ffffffffffffffffffffffffffffffffffffffff1681525050905081806001019250503373ffffffffffffffffffffffffffffffffffffffff16816040015173ffffffffffffffffffffffffffffffffffffffff161415610cb057610caf86868686611b43565b5b50610b30565b5050505050565b6004806000015490806001018054600181600116156101000203166002900480601f016020809104026020016040519081016040528092919081815260200182805460018160011615610100020316600290048015610d5d5780601f10610d3257610100808354040283529160200191610d5d565b820191906000526020600020905b815481529060010190602001808311610d4057829003601f168201915b5050505050908060020160009054906101000a900473ffffffffffffffffffffffffffffffffffffffff16905083565b6007806000015490806001015490806002018054600181600116156101000203166002900480601f016020809104026020016040519081016040528092919081815260200182805460018160011615610100020316600290048015610e335780601f10610e0857610100808354040283529160200191610e33565b820191906000526020600020905b815481529060010190602001808311610e1657829003601f168201915b505050505090806003018054600181600116156101000203166002900480601f016020809104026020016040519081016040528092919081815260200182805460018160011615610100020316600290048015610ed15780601f10610ea657610100808354040283529160200191610ed1565b820191906000526020600020905b815481529060010190602001808311610eb457829003601f168201915b5050505050908060040160009054906101000a900473ffffffffffffffffffffffffffffffffffffffff16905085565b6000600d6000848152602001908152602001600020905060038190806001815401808255809150509060018203906000526020600020906005020160009091929091909150600082015481600001556001820154816001015560028201816002019080546001816001161561010002031660029004610f81929190611f8f565b5060038201816003019080546001816001161561010002031660029004610fa9929190611f8f565b506004820160009054906101000a900473ffffffffffffffffffffffffffffffffffffffff168160040160006101000a81548173ffffffffffffffffffffffffffffffffffffffff021916908373ffffffffffffffffffffffffffffffffffffffff1602179055505050508060040160009054906101000a900473ffffffffffffffffffffffffffffffffffffffff1673ffffffffffffffffffffffffffffffffffffffff163373ffffffffffffffffffffffffffffffffffffffff16146110bc576040517f08c379a00000000000000000000000000000000000000000000000000000000081526004018080602001828103825260218152602001806120ec6021913960400191505060405180910390fd5b818160040160006101000a81548173ffffffffffffffffffffffffffffffffffffffff021916908373ffffffffffffffffffffffffffffffffffffffff16021790555060038190806001815401808255809150509060018203906000526020600020906005020160009091929091909150600082015481600001556001820154816001015560028201816002019080546001816001161561010002031660029004611168929190611f8f565b5060038201816003019080546001816001161561010002031660029004611190929190611f8f565b506004820160009054906101000a900473ffffffffffffffffffffffffffffffffffffffff168160040160006101000a81548173ffffffffffffffffffffffffffffffffffffffff021916908373ffffffffffffffffffffffffffffffffffffffff1602179055505050507f1c7c175460502ac9d9f567695a426349fb3145498a2115a19e1a4cf3f832c6bd833384604051808481526020018373ffffffffffffffffffffffffffffffffffffffff1673ffffffffffffffffffffffffffffffffffffffff1681526020018273ffffffffffffffffffffffffffffffffffffffff1673ffffffffffffffffffffffffffffffffffffffff168152602001935050505060405180910390a1505050565b600381815481106112ac57fe5b9060005260206000209060050201600091509050806000015490806001015490806002018054600181600116156101000203166002900480601f0160208091040260200160405190810160405280929190818152602001828054600181600116156101000203166002900480156113645780601f1061133957610100808354040283529160200191611364565b820191906000526020600020905b81548152906001019060200180831161134757829003601f168201915b505050505090806003018054600181600116156101000203166002900480601f0160208091040260200160405190810160405280929190818152602001828054600181600116156101000203166002900480156114025780601f106113d757610100808354040283529160200191611402565b820191906000526020600020905b8154815290600101906020018083116113e557829003601f168201915b5050505050908060040160009054906101000a900473ffffffffffffffffffffffffffffffffffffffff16905085565b6000809054906101000a900473ffffffffffffffffffffffffffffffffffffffff1681565b600c602052806000526040600020600091509050806000015490806001018054600181600116156101000203166002900480601f0160208091040260200160405190810160405280929190818152602001828054600181600116156101000203166002900480156115095780601f106114de57610100808354040283529160200191611509565b820191906000526020600020905b8154815290600101906020018083116114ec57829003601f168201915b5050505050908060020160009054906101000a900473ffffffffffffffffffffffffffffffffffffffff16905083565b60025481565b60015481565b6000809054906101000a900473ffffffffffffffffffffffffffffffffffffffff1673ffffffffffffffffffffffffffffffffffffffff163373ffffffffffffffffffffffffffffffffffffffff16146115ea576040517f08c379a00000000000000000000000000000000000000000000000000000000081526004018080602001828103825260308152602001806120bc6030913960400191505060405180910390fd5b60405180606001604052808481526020018381526020018273ffffffffffffffffffffffffffffffffffffffff16815250600c6000858152602001908152602001600020600082015181600001556020820151816001019080519060200190611654929190612016565b5060408201518160020160006101000a81548173ffffffffffffffffffffffffffffffffffffffff021916908373ffffffffffffffffffffffffffffffffffffffff16021790555090505060405180606001604052808481526020018381526020018273ffffffffffffffffffffffffffffffffffffffff1681525060046000820151816000015560208201518160010190805190602001906116f8929190612016565b5060408201518160020160006101000a81548173ffffffffffffffffffffffffffffffffffffffff021916908373ffffffffffffffffffffffffffffffffffffffff1602179055509050506001600081548092919060010191905055507fbacaf6d36b7d51c6218f59e1a2ffd1a623435c42e35078a5b9d4adaae596dcd9828260405180806020018373ffffffffffffffffffffffffffffffffffffffff1673ffffffffffffffffffffffffffffffffffffffff168152602001828103825284818151815260200191508051906020019080838360005b838110156117ea5780820151818401526020810190506117cf565b50505050905090810190601f1680156118175780820380516001836020036101000a031916815260200191505b50935050505060405180910390a1505050565b600d602052806000526040600020600091509050806000015490806001015490806002018054600181600116156101000203166002900480601f0160208091040260200160405190810160405280929190818152602001828054600181600116156101000203166002900480156118e25780601f106118b7576101008083540402835291602001916118e2565b820191906000526020600020905b8154815290600101906020018083116118c557829003601f168201915b505050505090806003018054600181600116156101000203166002900480601f0160208091040260200160405190810160405280929190818152602001828054600181600116156101000203166002900480156119805780601f1061195557610100808354040283529160200191611980565b820191906000526020600020905b81548152906001019060200180831161196357829003601f168201915b5050505050908060040160009054906101000a900473ffffffffffffffffffffffffffffffffffffffff16905085565b600e60205281600052604060002060205280600052604060002060009150915050806000015490806001015490806002018054600181600116156101000203166002900480601f016020809104026020016040519081016040528092919081815260200182805460018160011615610100020316600290048015611a755780601f10611a4a57610100808354040283529160200191611a75565b820191906000526020600020905b815481529060010190602001808311611a5857829003601f168201915b505050505090806003018054600181600116156101000203166002900480601f016020809104026020016040519081016040528092919081815260200182805460018160011615610100020316600290048015611b135780601f10611ae857610100808354040283529160200191611b13565b820191906000526020600020905b815481529060010190602001808311611af657829003601f168201915b5050505050908060040160009054906101000a900473ffffffffffffffffffffffffffffffffffffffff16905085565b6040518060a001604052808581526020018481526020018381526020018281526020013373ffffffffffffffffffffffffffffffffffffffff16815250600d600086815260200190815260200160002060008201518160000155602082015181600101556040820151816002019080519060200190611bc3929190612016565b506060820151816003019080519060200190611be0929190612016565b5060808201518160040160006101000a81548173ffffffffffffffffffffffffffffffffffffffff021916908373ffffffffffffffffffffffffffffffffffffffff1602179055509050506040518060a001604052808581526020018481526020018381526020018281526020013373ffffffffffffffffffffffffffffffffffffffff16815250600760008201518160000155602082015181600101556040820151816002019080519060200190611c9a929190612016565b506060820151816003019080519060200190611cb7929190612016565b5060808201518160040160006101000a81548173ffffffffffffffffffffffffffffffffffffffff021916908373ffffffffffffffffffffffffffffffffffffffff1602179055509050506040518060a001604052808581526020018481526020018381526020018281526020013373ffffffffffffffffffffffffffffffffffffffff16815250600e60003373ffffffffffffffffffffffffffffffffffffffff1673ffffffffffffffffffffffffffffffffffffffff168152602001908152602001600020600086815260200190815260200160002060008201518160000155602082015181600101556040820151816002019080519060200190611dbf929190612016565b506060820151816003019080519060200190611ddc929190612016565b5060808201518160040160006101000a81548173ffffffffffffffffffffffffffffffffffffffff021916908373ffffffffffffffffffffffffffffffffffffffff1602179055509050506002600081548092919060010191905055507f96a0309f517be338447709f35b91126ff3247f80e224cab6b624aeca71f5fafe84848484604051808581526020018481526020018060200180602001838103835285818151815260200191508051906020019080838360005b83811015611eae578082015181840152602081019050611e93565b50505050905090810190601f168015611edb5780820380516001836020036101000a031916815260200191505b50838103825284818151815260200191508051906020019080838360005b83811015611f14578082015181840152602081019050611ef9565b50505050905090810190601f168015611f415780820380516001836020036101000a031916815260200191505b50965050505050505060405180910390a150505050565b60405180606001604052806000815260200160608152602001600073ffffffffffffffffffffffffffffffffffffffff1681525090565b828054600181600116156101000203166002900490600052602060002090601f016020900481019282601f10611fc85780548555612005565b8280016001018555821561200557600052602060002091601f016020900482015b82811115612004578254825591600101919060010190611fe9565b5b5090506120129190612096565b5090565b828054600181600116156101000203166002900490600052602060002090601f016020900481019282601f1061205757805160ff1916838001178555612085565b82800160010185558215612085579182015b82811115612084578251825591602001919060010190612069565b5b5090506120929190612096565b5090565b6120b891905b808211156120b457600081600090555060010161209c565b5090565b9056fe796f7520617265206e6f7420617574686f72697a656420746f207265676973746572204d616e75666163747572657273796f75607265206e6f7420746865206f776e6572206f6620746869732064727567a265627a7a72315820522475402f5b07b3748e0dc444e6bf6e8abd7e60765eeb1a150f24a2316a993064736f6c63430005100032",
  "source": "pragma solidity >=0.4.20 <0.7.0;\r\ncontract DrugTracking {\r\n//core function is to track drugs between owners of the drug\r\n// allow certain manufctures to register the drug \r\n//get current owener of the drug\r\n//cherck if the drug has already been consumed , retail , warehouse \r\n//get the drug previos owners\r\n// writing events registering manu , creating drug  , change ownership\r\n\r\n      // code \r\n\r\n      // state variables \r\n      address public owner;\r\n      uint public manufacturersCount = 0 ;\r\n      uint public drugsCount = 0;\r\n      // track drug information \r\n      Drug[] public drugTrack ;\r\n       Manufacturer public createdManufacturer ;\r\n       Drug public createdDrug ;\r\n\r\n\r\n       \r\n      \r\n\r\n\r\n\r\n      // struct representation of pharmaceutical drug \r\n        struct Drug {\r\n         uint serialNumber;\r\n         //national drug code\r\n         uint ndc;\r\n         string name;\r\n         string manufacturerName;\r\n         address currentOwner ;\r\n         \r\n   \r\n\r\n        } \r\n        struct Manufacturer {\r\n          uint id;\r\n          string name;\r\n          address account;\r\n\r\n\r\n\r\n\r\n        }\r\n        struct pharmacy {\r\n          uint id;\r\n          string name;\r\n         address account;\r\n\r\n\r\n        }\r\n        //all registered manufacturers \r\n        mapping(uint => Manufacturer) public manufacturers;\r\n\r\n        // all drugs in the supply chain get the last onwer \r\n        mapping(uint => Drug) public drugs ;\r\n        // Drug and current owner mapping , get the drugs in the supply chain exchaining hands\r\n\r\n        mapping(address => mapping(uint => Drug)) public ownerships ;\r\n\r\n        // events  of every data writing \r\n        event registerManufacturers(string  _names , address _accounts) ;\r\n        event createDrugs(\r\n          uint _serialNumbers ,\r\n         uint _ndcs , \r\n         string  _names ,\r\n          string  _manufacturerNames\r\n\r\n        ) ;\r\n\r\n        event changeOwnerships(uint _serialNumbers , address _oldOwners , address _newOwners ) ;\r\n       \r\n\r\n        \r\n        constructor() public {\r\n           owner = msg.sender; \r\n\r\n        }\r\n        function registerManufacturer(uint  _id , string memory _name , address   _account) payable public{\r\n            require(msg.sender == owner , \"you are not authorized to register Manufacturers\") ;\r\n            manufacturers[_id] = Manufacturer(_id , _name, _account ) ;\r\n            createdManufacturer = Manufacturer(_id , _name, _account ) ;\r\n            manufacturersCount ++;\r\n            emit registerManufacturers(_name , _account) ;\r\n        }\r\n        \r\n        function createDrug(uint _serialNumber , uint _ndc , string memory _name , string memory _manufacturerName)  internal {\r\n            \r\n         drugs[_serialNumber] = Drug(_serialNumber , _ndc, _name ,_manufacturerName ,msg.sender) ;\r\n         createdDrug = Drug(_serialNumber , _ndc, _name ,_manufacturerName ,msg.sender) ;\r\n         ownerships[msg.sender][_serialNumber] = Drug(_serialNumber , _ndc, _name,_manufacturerName,msg.sender) ;\r\n         drugsCount ++ ;              \r\n         emit createDrugs(_serialNumber , _ndc , _name , _manufacturerName);\r\n\r\n\r\n        }\r\n        function registerDrug(uint _serialNumber , uint _ndc , string memory _name , string memory _manufacturerName) payable public{\r\n           \r\n          uint i = 0 ;\r\n\r\n          while ( i <= manufacturersCount) {\r\n          Manufacturer memory cherck =  manufacturers[i] ;\r\n          i ++ ;\r\n          if(cherck.account == msg.sender) {\r\n            createDrug(_serialNumber ,_ndc ,_name ,_manufacturerName) ;\r\n            \r\n          }\r\n          \r\n          }\r\n          \r\n        }\r\n\r\n        // function to tranfer drugs between maunfacture and other \r\n       // get the drug change current owener\r\n       // create an array  to push in the the next owner\r\n\r\n       function changeOwnership(uint _serialNumber , address _newOwner)payable public{\r\n          Drug storage currentDrug = drugs[_serialNumber] ;\r\n         drugTrack.push(currentDrug);\r\n         require(msg.sender == currentDrug.currentOwner  , \"you`re not the owner of this drug\") ;\r\n         currentDrug.currentOwner = _newOwner ;\r\n         drugTrack.push(currentDrug);\r\n         emit changeOwnerships(_serialNumber , msg.sender , _newOwner) ;\r\n         \r\n\r\n       }\r\n\r\n\r\n\r\n\r\n\r\n}",
  "sourcePath": "C:/Users/Jephias T Mundondo/OneDrive/Desktop/drugApp/contracts/DrugTracking.sol",
  "compiler": {
    "name": "solc",
    "version": "0.5.16+commit.9c3226ce.Emscripten.clang"
  },
  "schemaVersion": "3.3.3",
  "updatedAt": "2021-01-26T19:06:22.575Z",
  "networkType": "ethereum",
  "devdoc": {
    "methods": {}
  },
  "userdoc": {
    "methods": {}
  }
}